:1000000045C0000060C000005EC000005CC0000091
:100010005AC0000058C0000056C0000054C0000084
:1000200052C0000050C000004EC000004CC0000094
:100030004AC0000048C0000046C0000044C00000A4
:1000400042C0000040C00000E4C100003CC000000D
:100050003AC0000038C0000036C0000034C00000C4
:1000600032C0000030C000002EC000002CC00000D4
:100070002AC0000028C0000026C0000024C00000E4
:1000800022C0000020C000001EC0000011241FBEBE
:10009000CFEFD0E1DEBFCDBF11E0A0E0B1E0E0EFF7
:1000A000F4E000E00BBF02C007900D92A030B10752
:1000B000D9F728E0A0E0B1E001C01D92A93FB20746
:1000C000E1F7FCD113C29CCFEF92FF920F931F93E5
:1000D000CF93DF9301E111E0C5E1D1E0F801819117
:1000E0008F0100D20C171D07C9F709E011E00F2E90
:1000F000FDE0EF2EF1E0FF2EF02D8991F8018193C4
:100100008F01F0D10E151F05C1F709E111E0C9EE0D
:10011000D8E00F2EFDEEEF2EF8E0FF2EF02DF801C7
:1001200081918F018993DED1CE15DF05C1F70DE1F5
:1001300011E0C5E0D1E00F2EF9E0EF2EF1E0FF2E47
:10014000F02DF80181918F018993CCD1EC16FD0639
:10015000C1F7DF91CF911F910F91FF90EF9008951C
:10016000EF92FF920F931F93CF93DF9301E111E082
:10017000C5E1D1E0F80181918F01B4D10C171D07C1
:10018000C9F705EF18E00F2EF9EFEF2EF8E0FF2E7C
:10019000F02D8991F80181938F01A4D10E151F05CF
:1001A000C1F709E111E0CDE0D1E00F2EF1E1EF2E32
:1001B000F1E0FF2EF02DF80181918F01899392D10A
:1001C000CE15DF05C1F70DE111E0CDEED8E00F2E21
:1001D000F1EFEF2EF8E0FF2EF02DF80181918F0165
:1001E000899380D1EC16FD06C1F7DF91CF911F9165
:1001F0000F91FF90EF900895CF92DF92EF92FF92D0
:100200000F931F93CF93DF93C1E1D1E00F2EF5E160
:10021000EF2EF1E0FF2EF02D8E01F80181918F017C
:1002200061D10E151F05C9F70F2EF1E1EF2EF1E098
:10023000FF2EF02DF701848102E011E0F8018083A8
:1002400051D1F7018581F80181834CD1F701868175
:10025000F801828347D10F2EF8E1EF2EF1E0FF2E57
:10026000F02D01EE18E00F2EF5EECF2EF8E0DF2E88
:10027000F02DF70181917F01F80181938F0132D137
:100280000C151D05B1F72AE131E08D858993C21760
:10029000D307D9F7DF91CF911F910F91FF90EF9086
:1002A000DF90CF900895AF92BF92CF92DF92EF92FE
:1002B000FF920F931F93CF93DF93C1E1D1E00F2EF5
:1002C000F5E1EF2EF1E0FF2EF02D8E01F801819186
:1002D0008F0108D10E151F05C9F701E111E0F801E2
:1002E00084810F2EF3EFEF2EF8E0FF2EF02DF701B3
:1002F0008083F8D0F8018581F7018183F3D0F8017C
:1003000086810F2EF1EFEF2EF8E0FF2EF02DF70192
:100310008083E8D0F8018781F7018183E3D00F2E35
:10032000F9E1EF2EF1E0FF2EF02D05EE18E00F2E93
:10033000F9EEAF2EF8E0BF2EF02D6701F6018191A6
:100340006F01F80181938F01CDD00A151B05B1F71C
:100350008E858993EC16FD06D9F7DF91CF911F9119
:100360000F91FF90EF90DF90CF90BF90AF900895E6
:1003700080911301843051F4809114018C3A11F56D
:10038000A3DE10920101109200010895853051F40E
:10039000809114018C3AB1F4E3DE109201011092C5
:1003A000000108958F3061F4809114018C3A51F46A
:1003B00023DF89E090E0909301018093000108958C
:1003C0008B3051F04091000150910101CA010E970C
:1003D000181619066CF016C0809114018C3A91F72A
:1003E00062DF88E090E0909301018093000108951E
:1003F000E1E1F1E09A012D5F3E4F868581932E1752
:100400003F07D9F74850510950930101409300012B
:1004100008951F920F920FB60F9211240BB60F92F0
:100420002F933F934F935F936F937F938F939F93FC
:10043000AF93BF93EF93FF93F894409100015091D5
:1004400001018CB1FA01EF5EFE4F8083CA01019673
:1004500090930101809300014697E4F0809111018F
:100460008F3321F0141615063CF010C08091120154
:100470008F33C1F77DDF0EC0E1E1F1E09A012F5E1D
:100480003E4F81818193E217F307D9F75093010121
:10049000409300017894FF91EF91BF91AF919F91AC
:1004A0008F917F916F915F914F913F912F910F901D
:1004B0000BBE0F900FBE0F901F90189502D078942E
:1004C000FFCF1BB81AB8E5E9F0E01082599A8AB15B
:1004D00088698AB980818E60808387E689B91092A5
:1004E000900008955D9BFECF8CB90895F894FFCFDE
:00000001FF
