S01C0000506F7765724F424374776F7761792D506F7765722E7372656342
S11300000C942A000C9447000C9447000C9447006D
S11300100C9447000C9447000C9447000C94470040
S11300200C9447000C9447000C9447000C94470030
S11300300C9447000C9447000C9447000C94470020
S11300400C9447000C9447000C9447000C94D10185
S11300500C94470011241FBECFE5D8E0DEBFCDBF0E
S113006010E0A0E6B0E0E2E0F5E002C005900D92F9
S1130070A236B107D9F720E0A2E6B0E001C01D9294
S1130080A437B207E1F70E9421010C947F020C947B
S11300900000833039F128F4813041F08230A1F03E
S11300A04BC0843069F18530C9F146C081E687B917
S11300B085EC86B98FE19EE40197F1F700C000005A
S11300C03699FECF85B1089583E687B985EC86B964
S11300D08FE19EE40197F1F700C000003699FECF4E
S11300E085B1089584E687B985EC86B98FE19EE4ED
S11300F00197F1F700C000003699FECF85B108954D
S113010080E687B985EC86B98FE19EE40197F1F723
S113011000C000003699FECF85B1089582E687B904
S113012085EC86B98FE19EE40197F1F700C00000E9
S11301303699FECF85B1089508958BB38BBB88B3F0
S11301408E6088BB85B3846C85BB949AEBE6F0E043
S113015080818E6F8083089588233CF4C09AEBE6F7
S1130160F0E090819068908307C098B318BAEBE6EA
S1130170F0E090819E77908386FF07C0C29AEBE6F9
S1130180F0E090819064908307C098B318BAEBE6CE
S1130190F0E090819E7B908385FF08C092B312BAF1
S11301A0EBE6F0E090819062908306C0979AEBE6CC
S11301B0F0E090819E7D908384FF08C09BB31BBABE
S11301C0EBE6F0E090819061908306C0DF9AEBE665
S11301D0F0E090819E7E908383FF08C09BB31BBA9E
S11301E0EBE6F0E090819860908306C0DE9AEBE63F
S11301F0F0E09081967F908382FF07C0C39AEBE67C
S1130200F0E090819460908307C098B318BAEBE64D
S1130210F0E090819A7F908381FF08C095B315BA6E
S1130220EBE6F0E090819260908306C0AE9AEBE634
S1130230F0E090819C7F90838E3F11F40E949D009A
S11302400895CF93DF93CDB7DEB728970FB6F89410
S1130250DEBF0FBECDBF80EC8ABB8EE087BB84ECD3
S113026084BB80ED81BB0E946D0278940E949D0046
S113027080E20E94820161E0CE0101960E94880121
S11302800F2EFBE6CF2EF0E0DF2EF02D08EF61E01D
S1130290CE0101960E94AB0189810E947B022FEF5F
S11302A084E39CE0215080409040E1F700C00000CE
S11302B00F2EFCE6EF2EF0E0FF2EF02D11E0812F43
S11302C00E944900F70181937F011F5F1630B9F73F
S11302D0F6010683898180936A0080810E947B02F3
S11302E080916A000E94AC00F60180810E947B022A
S11302F0FFEF24E38CE0F15020408040E1F700C0A0
S11303000000C5CF82B984E086BF109264000895CE
S11303109C01909164009111FECF60936500662367
S113032079F0F901A6E6B0E0615070E06F5F7F4FAD
S1130330C901860F971F21912D93E817F907D9F763
S11303401092630088EF8093600085EC86BF81E0A3
S113035080936400089520916400222329F0000012
S1130360209164002111FBCF2091630020FF15C070
S1130370662371F0E6E6F0E0A82FB92F6150862FCE
S113038090E089599F4F21912D93E817F907D9F7E8
S1130390809163008D7F80936300809163008170FE
S11303A008951F920F920FB60F9211248F939F936B
S11303B0EF93FF9381B1803909F45EC090F48037E4
S11303C009F448C038F4882309F471C0803609F46C
S11303D046C073C0803809F44FC0883809F467C038
S11303E06CC0883A81F038F4883909F460C0803AE6
S11303F009F458C062C0803CC9F0883C09F457C075
S1130400883B19F05AC010926200E091620081E0CA
S11304108E0F80936200F0E0EA59FF4F808183B928
S113042085EC86BF81E0809364004EC090916200A9
S113043080916500981306C0809163008160809369
S1130440630003C081B18093600085EC86BF109285
S113045064003AC08091630084608093630080915B
S113046063008260809363001092620085EC86BF13
S113047081E08093640028C0E091620081E08E0FE7
S11304808093620083B1F0E0EA59FF4F808380914A
S1130490630081608093630085EC86BF81E0809374
S11304A0640012C085EC86BF109264000DC081B157
S11304B08093600080E986BF07C081B180936000AB
S11304C085EC86BF10926400FF91EF919F918F910C
S11304D00F900FBE0F901F9018951BB81AB810BC40
S11304E0599A8AB188618AB980B58E6080BD87E6E1
S11304F089B910BC08955D9BFECF8CB90895F8941A
S1050500FFCF27
S1050502F800FB
S9030000FC
